:020000040800F2
:1000000008070020DD0100081B1B0008C9180008B4
:10001000191B00081D090008D91C00080000000079
:100020000000000000000000000000001F1B00088E
:10003000D1090008000000001D1B0008211B00085A
:10004000F7010008F7010008F7010008F7010008B0
:10005000F7010008F7010008F7010008F7010008A0
:10006000F7010008F7010008F7010008F701000890
:10007000F7010008F7010008F7010008F701000880
:10008000F7010008F7010008F70100080000000070
:10009000000000000000000000000000F701000860
:1000A000F7010008F7010008F7010008F701000850
:1000B000000000000000000000000000F701000840
:1000C000F7010008F7010008F7010008F701000830
:1000D000F7010008F7010008F70100080000000020
:1000E000F7010008F7010008000000000000000010
:1000F000000000000000000000000000F701000800
:100100000000000000000000F701000800000000EF
:100110000000000000000000F701000800000000DF
:1001200021090008F7010008F7010008F70100089D
:10013000F7010008000000000000000000000000BF
:1001400000000000000000000000000000000000AF
:10015000F7010008F7010008F7010008F70100089F
:10016000000000000000000000000000000000008F
:10017000000000000000000000000000000000007F
:10018000F7010008F701000800000000000000006F
:1001900000000000F701000800000000000000005F
:1001A000000000000000000000000000000000004F
:1001B000000000000000000000000000F70100083F
:1001C000F7010008F7010008DFF80CD000F0A6FAEC
:1001D00000480047792600080807002006488047A5
:1001E00006480047FEE7FEE7FEE7FEE7FEE7FEE71C
:1001F000FEE7FEE7FEE7FEE7951B0008C9010008E1
:100200002DE9F05F0546002092469B46884606464B
:10021000814640241BE0284641464746224600F0DE
:10022000C9F853465A46C01A914110D31146184690
:10023000224600F0B0F82D1A67EB01084F4622461F
:100240000120002100F0A7F817EB00094E41201E05
:10025000A4F10104DFDC484631462A464346BDE8A6
:10026000F09FD2B201E000F8012B491EFBD270478B
:100270000022F6E710B513460A4604461946FFF772
:10028000F0FF204610BD2DE9FE4F81EA030404F083
:10029000004421F0004100944FF0000B23F0004394
:1002A00050EA01045ED052EA03045BD0C3F30A545F
:1002B000C1F30A552C44A4F2F3340194A0FB025478
:1002C000C1F3130141F48011C3F3130343F480130A
:1002D00001FB024400FB034E840A970A44EA81545E
:1002E00047EA8357A4FB076802958D0A05FB07853B
:1002F0004FEA932C04FB0C542705029D4FEA065845
:1003000047EA1637B5EB08056EEB070C870E920E21
:1003100047EA811742EA8312A7FB0201B6EB0B0101
:1003200064EB00042B0D43EA0C335E1844EB1C50C5
:10033000DA465146E7FB0201C5F313044FEA0B33DB
:1003400043EA14534FEA0432019C43EA0603A4F142
:100350000C040294009CCDE900B400F04AF803B00C
:10036000BDE8F08F00200146F9E730B50B460146A5
:1003700000202022012409E021FA02F59D4205D344
:1003800003FA02F5491B04FA02F52844151EA2F1EE
:100390000102F1DC30BD202A04DB203A00FA02F130
:1003A000002070479140C2F1200320FA03F3194363
:1003B00090407047202A04DB203A21FA02F0002105
:1003C000704721FA02F3D040C2F120029140084365
:1003D0001946704710B5141E73F1000408DA401C6A
:1003E00041F1000192185B411A4301D120F0010054
:1003F00010BD2DE9F04D92469B4611B1B1FA81F244
:1004000002E0B0FA80F220329046FFF7C4FF0446C3
:100410000F4640EA0A0041EA0B0153465A46084398
:1004200013D0114653EA010019D0C8F140025046DA
:10043000FFF7C0FF05460E46504659464246FFF7B5
:10044000AAFF084305D0012004E020463946BDE854
:10045000F08D0020054346EAE0762C4337430A98A6
:100460006305E40AA0EB08000022FD0A44EA4754B1
:100470000A3002D500200146E9E70105101969415B
:10048000DDE9084500196941BDE8F04DA2E72DE915
:10049000FE4F804681EA0300C00F0C46009021F019
:1004A000004123F00045B8EB0200A94105D24046C7
:1004B000214690461C460B46024623F0004010435E
:1004C00047D0270DC7F30A00C3F30A510290401A20
:1004D000019040286BDAC3F3130040F4801B0098AE
:1004E000924620B10023D2EB030A63EB0B0B019879
:1004F0005946C0F140025046FFF74DFF06460D46F3
:1005000050465946019A00F01BF910EB0800614172
:10051000002487EA115284EAE7731A4340D0009A14
:1005200062B3019A012A4FEA075215DC001B61EB06
:1005300002014FF0004202EA0752CDE90042001CDE
:1005400041F5801132462B46FFF753FF03B0BDE85B
:10055000F08F40462146F9E7001B61EB0201001CC9
:1005600041F5801300185B412018A2F5001747EBF6
:10057000030140EAD570B6196D4111E06D084FEAEC
:10058000360645EAC0754FEA0752001B61EB0201CF
:10059000001C41F5801149084FEA30000019514113
:1005A00032462B4603B0BDE8F04FFFF713BF00986B
:1005B000012240000023D0EB020263EBE0730098BD
:1005C00021464FEAE074B8EB000061EB0401E9E773
:1005D00083F000435BE781F0004158E72DE9F04DDF
:1005E00081EA030404F0004B21F0004514464FF06B
:1005F000000A23F0004150EA050220D054EA01022B
:100600001DD0C5F30A570246C5F31303C1F3130007
:10061000C1F30A5640F4801543F48013A7EB060893
:10062000101BD64608F2FD3873EB050002D308F123
:10063000010801E092185B41B8F1000F03DA0020D5
:100640000146BDE8F08D00204FF480110646844637
:100650000EE0171B73EB050705D3121B63EB0503B5
:1006600006434CEA010C49084FEA300092185B41FE
:1006700050EA0107EDD152EA030012D082EA0400E9
:1006800083EA0501084305D0101BAB4106D20122C5
:10069000002306E000224FF0004302E06FF0010269
:1006A00053101AEB06004CEB085110EB0A0041EB1B
:1006B0000B01BDE8F04DFFF78DBEC1F30A52C1F347
:1006C000130140F2FF3341F480119A4202DA002014
:1006D0000146704740F233439A42A2F2334202DCB1
:1006E0005242FFF767BEFFF756BE000030B5041E4A
:1006F00071F1000404DB4FF00044404264EB01015F
:10070000141E73F1000405DB1C464FF000435242F7
:1007100063EB0403994208BF904230BD064C074D7D
:1007200006E0E06840F0010394E8070098471034C1
:10073000AC42F6D3FFF74CFD3427000854270008DD
:10074000202A06DBCB17203A41FA02F043EAE07395
:1007500006E041FA02F3D040C2F120029140084382
:100760001946704710B50146806B026C12F0500FAD
:1007700005D0026CD20626D500F0D4F910BD016C6C
:1007800041F40071016401688A6812F0405F17D17A
:10079000027EAAB9CA6A12F4700F02D08A685205A2
:1007A0000ED44A6822F020024A60016C21F4807164
:1007B0000164016CC90403D4016C41F001010164BE
:1007C00000F0AEF910BD806BC26CBDE81040084669
:1007D000104710B5806B40210164416C41F0040169
:1007E000416400F09FF910BD10B5806B00F099F9DD
:1007F00010BD0000464910B54A6822F440324A60F4
:100800004A6843681A434A6001684A6822F4807261
:100810004A6001684A68036942EA03224A60016843
:100820004A6822F040724A6001684A6883681A4345
:100830004A6001688A6822F400628A6001688A68F6
:10084000C3681A438A60816A6FF07062D14201689E
:100850008A6822F070628A6001688A680CD0836AB4
:100860001A438A6001688A6822F040528A600168EF
:100870008A68C36A1A4301E022F040528A60016824
:100880008A6822F002028A6001688A68037E42EA6E
:1008900043028A6090F82010002901684A680FD04E
:1008A00042F400624A6001684A6822F460424A6089
:1008B00001684A68174C436A04EB43331A4301E06A
:1008C00022F400624A600168CA6A22F47002CA62B5
:1008D0000168CA6A838B104C04EB03531A43CA6243
:1008E00001688A6822F400728A6001688A6890F858
:1008F000303042EA43228A6001688A6822F48062CA
:100900008A6001688A68406942EA8020886010BD78
:100910000023014000E0FFFF0000F0FFFEE70000C1
:10092000014800F0F5B90000A80200200168182372
:10093000CAB2103AB2FBF3F2054B6FF30901032A76
:100940009B5CC36500D9091D81650846704700009E
:100950001427000810B5014600208B698A6A4FF001
:10096000C07453B1B3F5005F15D072B1012A0CD039
:10097000022A0AD0032A09D104E01AB1012A06D0BA
:10098000022A03D1C96AC90100D5012010BDC96A74
:10099000A142FAD010BD002AF7D0012AF2D0022AD3
:1009A000F3D0032AF3D010BD30B50468256825F4D0
:1009B00080252560046863608368402B036803D04A
:1009C00099600068C26030BD9A600068C16030BD47
:1009D0007047704778B50024009490F83C20012AB5
:1009E00019D0012280F83C200A6807230568092AEB
:1009F00013D9EE680A3A02EB420293409E43EE603E
:100A00000B788A680A3B03EB43039A400368DD686E
:100A10002A43DA6010E0022078BD2E6902EB420220
:100A200093409E432E610B788A6803EB43039A4000
:100A300003681D692A431A614A681F23072A13D2D3
:100A400005686E6B521E02EB820293409E436E63FA
:100A50000B790A885B1E92B203EB83039A4003680A
:100A60005D6B2A435A6327E005680D2A12D22E6B6C
:100A7000D21F02EB820293409E432E630B790A88B9
:100A8000DB1F92B203EB83039A4003681D6B2A437A
:100A90001A6311E0EE6A0D3A02EB820293409E4324
:100AA000EE620B790A880D3B92B203EB83039A4006
:100AB0000368DD6A2A43DA62164B0568144A9D42D0
:100AC00006D10D68122D03D1556845F48005556097
:100AD00005689D4218D10B68102B01D0112B13D142
:100AE000536843F400035360096810290CD10A4984
:100AF0000A4A0968B1FBF2F101EB8101490000E00B
:100B0000491E00910029FBD180F83C40002078BDAF
:100B100000230140002001402001002040420F003E
:100B200070477047704770B504004FF0000503D060
:100B3000206C002610B107E0012070BD204600F0B7
:100B40001DF8666484F83C60206CC00610D4206CEC
:100B500020F4885040F0020020642046FFF74AFE4F
:100B60006664206C20F0020040F00100206400E088
:100B7000012584F83C60284670BD000070B586B041
:100B8000064614216846FFF773FB1C49306888420B
:100B900032D11B480025016841F480710160006872
:100BA00000F48070059016481438016841F0010186
:100BB00001600068694600F0010005900320009084
:100BC000CDE901050F4800F027FA104C0E48C4E9A2
:100BD00000050015A560C4E9035040006061800075
:100BE000C4E9060525622046656200F061F908B196
:100BF000FFF7EFFEB463A66306B070BD00200140AE
:100C0000443802400000024010640240A802002064
:100C1000F8B50E4600210446009190F83C000128EA
:100C200007D0012084F83C0020688368DB0702D0ED
:100C300011E00220F8BD836843F0010383602D4872
:100C40002D4B0068B0FBF3F000EB400000E0401ECD
:100C500000900028FBD120688368DB0748D0236C14
:100C600040F20165AB4343F4807323644068400560
:100C700005D5206C20F4005040F480502064206C96
:100C8000C00404D5606C20F00600606400E061647C
:100C900084F83C10A16B1A48184DC863A16B194821
:100CA0000864A16B1848C86421686FF022000860CE
:100CB0002068416841F0806141602068816841F4AA
:100CC000807181602168134632464C31A06B00F080
:100CD00059F96868C006206802D00C49884207D1DB
:100CE000816811F0405F03D1816841F080418160EB
:100CF0000020F8BD2001002040420F0000230140E9
:100D000065070008E9070008D30700080020014034
:100D10002DE9F84304464FF00009CDF800906348F0
:100D20004FF41651A56D0068B0FBF1F72E6894F8EA
:100D30005C10082000FA01F131420FD021680A68E6
:100D400052070BD50A6822F004020A6094F85C107E
:100D50008840A860606D40F00100606594F85C1008
:100D60004FF0010808FA01F0304208D021684969C3
:100D7000090604D5A860606D40F00200606594F833
:100D80005C1004208840304208D021680968890737
:100D900004D5A860606D40F00400606594F85C10B4
:100DA00010208840304218D021680968090714D5FE
:100DB000A86020680168490304D50068000308D5CD
:100DC000A16C07E00168C90503D4016821F008019E
:100DD0000160216C09B12046884794F85C102020FE
:100DE0008840304231D021680968C9062DD5A860F5
:100DF00094F8350005282068016806D0490347D5D6
:100E0000006800031DD4616C1CE021F01601016034
:100E10002068416921F080014161206C08B9A06C13
:100E200020B12068016821F00801016094F85C108D
:100E30003F208840A86084F8349084F83580216D84
:100E40001FE0E16B09B120468847606D00282BD078
:100E5000606DC00714D0052084F835002068016853
:100E600021F0010101600098401C0090B84203D8B5
:100E700020680068C007F6D184F8349084F8358083
:100E8000E16C002910D001B02046BDE8F0430847CE
:100E90000168C905D5D4016821F01001016084F80A
:100EA000349084F83580CCE7BDE8F8832001002039
:100EB0002DE9F041044600F06DF906465CB10025CD
:100EC00084F83450022084F835002068016821F04D
:100ED000010101600DE00120BDE8F08100F05AF948
:100EE000801B052805D920206065032084F8350083
:100EF000F2E720680068C007F0D122681168204836
:100F00000140D4E901031843D4E9033633431843BD
:100F100063691843A3691843E3691843236A1843B4
:100F20000843616A042903D1D4E90B131943084328
:100F3000106020684069666A20F0070130460E4361
:100F4000012704280CD1A06A0643E06A40B120467C
:100F5000FFF700FD20B14020606584F83570BAE7E6
:100F6000206846612046FFF7E1FC94F85C203F21B1
:100F700091408160656584F835700020ACE7000021
:100F80003F8010F02DE9F0410446866D90F8340062
:100F9000002501280DD0012084F8340094F8357024
:100FA0000020012F07D084F8340002252846BDE830
:100FB000F0810220FBE7022784F835706065204647
:100FC000FFF7F2FC94F85C103F208840B060206886
:100FD000016841F016010160206C20B120680168B1
:100FE00041F0080101602068016841F001010160E1
:100FF000DCE7000070B5044600F0CCF80546601C44
:1010000002D004480078044400F0C4F8401BA04219
:10101000FAD370BD140100202DE9F84F00224FF0E3
:10102000010803254FF00F0E0B6808FA02F4234065
:10103000A3426ED14E68012E05D0022E03D0112E90
:1010400001D0122E12D186684FEA420C05FA0CF735
:10105000BE43CF6807FA0CF7374387604668A6435C
:101060000C79C4F30014944034434460C6685700BC
:1010700005FA07FC8C6826EA0C06BC403443C460C1
:101080004C68022C01D0122C13D1D40800EB84043C
:10109000A346D4F8209054074FEAD46A0EFA0AF611
:1010A00029EA06090E6906FA0AF646EA0906CBF8A5
:1010B000206004680E7924EA0C0406F00306BE40A2
:1010C000264306604C68E4004CD5294C266846F45B
:1010D00080462660246822F0030604F480440094CD
:1010E000244C3444A446D4F808489607370F0EFA27
:1010F00007F6B443204EB04201D100260BE01F4E4C
:10110000B04201D1012606E01D4EB04202D10226B6
:1011100001E027E00726BE402643CCF80868194EB8
:1011200034684F689C43FF0300D51C433460154E60
:10113000361D34684F689C43BF0300D51C433460A0
:10114000104E083634684F689C43FF0200D51C439C
:1011500034600C4E0C3634684F689C43BF0200D597
:101160001C433460521C102AFFF45EAFBDE8F88FB8
:1011700044380240003001400000024000040240B8
:1011800000080240003C01400AB181617047090437
:10119000FBE7000001488068704700001401002050
:1011A0000248816802781144816070471401002070
:1011B0000B4810B5016841F400710160016841F409
:1011C00080610160016841F480710160032000F0DA
:1011D0006FF8002000F006F800F024F8002010BDA1
:1011E000003C024070B50D4D04464FF47A712878EA
:1011F000B1FBF0F00A490968B1FBF0F000F0E8FA41
:1012000048B9102C07D200222146501E00F030F8B9
:1012100000206C6070BD012070BD00001401002032
:10122000200100200A4808B5016841F480410160AE
:10123000006800F4804000900548001F016841F0FC
:1012400080510160006800F08050009008BD0000EF
:1012500044380240002809DB00F01F0201219140C0
:101260004009800000F1E020C0F800117047000044
:10127000F0B40E4B1B680C46C3F30223C3F1070501
:10128000042D00D90425191D072901D2002300E0EF
:10129000DB1E012606FA05F1491E214099409E40B9
:1012A000761E16403143F0BC00F02CBD0CED00E082
:1012B000064900F0070208684FF6FF03184040EAAD
:1012C0000220034A10430860704700000CED00E064
:1012D0000000FA052DE9F0470E46050065D0DFF85D
:1012E0001481D8F80000F7B200F00F00B04207D226
:1012F00088F80070D8F8000000F00F00B04254D118
:1013000028683D4C810712D5400703D5206840F47A
:10131000E05020602878000703D5206840F4604042
:1013200020602068A96820F0F00008432060287839
:10133000C0072DD0304968680839012812D002282A
:1013400013D0032811D00968890700292DDA2168F4
:1013500021F0030101432160FFF71CFF814641F2A8
:10136000883A0EE009688903EFE709688901ECE72C
:10137000FFF710FFA0EB0901514502D90320BDE89A
:10138000F0872068696800F00C00B0EB810FEFD1A6
:10139000D8F80010404601F00F01B14207D907709C
:1013A000006800F00F00B04201D00120E7E7287884
:1013B000400705D52068E96820F4E0500843206024
:1013C0002878000706D52068296920F4604040EAA3
:1013D000C100206000F038F82168084AC1F3031109
:1013E000515CC8400649086006480068FFF7FAFEED
:1013F0000020C4E7003C0240083802401C270008D7
:1014000020010020180100200448054900680968EF
:10141000044AC1F38221515CC8407047200100207A
:10142000083802402C27000804480549006809686C
:10143000044AC1F34231515CC8407047200100208A
:10144000083802402C270008154810B5006810F035
:101450000C02144813D01449042A0FD0082A0ED1C4
:101460000F4C241F2268236802F03F025B0207D55D
:101470002068C0F38810A0FB010106E0084610BDFB
:101480002168C1F38811A1FB00010023FEF7B8FE1B
:101490002168C1F30141491C4900B0FBF1F010BDC6
:1014A000083802400024F40040787D012DE9F84F0F
:1014B00005460078DFF800B3C04CC0074AD0DBF81F
:1014C00000105846C1F38101012908D00068C0F31B
:1014D000810002280AD1201D0068400206D520683C
:1014E000800337D56868002872D033E06868B0F5AB
:1014F000803F10D0B0F5A02F206810D020F48030AD
:101500002060206820F4802020606868A8B1FFF780
:1015100041FE06460DE0206840F48030F4E740F4D8
:1015200080202060F7E700BFFFF734FE801B6428AF
:101530006FD820688003F7D50CE0FFF72BFE064636
:1015400005E000BFFFF726FE801B6428F0D8206866
:101550008003F7D42878DFF8688280074FF000090D
:1015600040D5DBF80010584611F00C0F09D0006888
:10157000C0F3810002280BD18F48001F0068400291
:1015800006D42068800715D5E868012820D111E02D
:10159000E868B8B10120C8F80000FFF7FBFD064677
:1015A00005E000BFFFF7F6FD801B0228C0D82068C9
:1015B0008007F7D52068296920F0F80040EAC100CB
:1015C00020600FE0C8F80090FFF7E4FD064606E053
:1015D000EFE000BFFFF7DEFD801B022819D820686E
:1015E0008007F7D42878000722D5734E75486969BB
:1015F0006C3679B101210160FFF7CCFD074604E0AC
:10160000FFF7C8FDC01B022803D830688007F7D554
:101610000EE089E0C0F80090FFF7BCFD074604E04B
:10162000FFF7B8FDC01B02287ED830688007F7D4CA
:101630002878400768D5DFF880A100270AF1380A2A
:10164000DAF80000C0000BD4DAF8001041F0805145
:10165000CAF80010DAF80000012700F0805000906E
:10166000594E3068C00510D4306840F48070306046
:10167000FFF790FD009005E0FFF78CFD0099401A00
:10168000022851D83068C005F6D54B4EA868683698
:1016900001280FD00528306810D020F001003060FC
:1016A000306820F004003060A868B8B1FFF772FD20
:1016B00000900FE0306840F00100F4E740F00400D3
:1016C0003060F7E7FFF766FD0099411A41F2883074
:1016D000814266D830688007F4D50EE0FFF75AFDE6
:1016E000009007E0FFF756FD0099411A41F288305B
:1016F000814256D830688007F4D42FB1DAF8001050
:1017000021F08051CAF80010A869D0B3DBF80010AE
:10171000C1F3810102294CD00228484607D0C8F8FD
:101720006000FFF737FD00E03BE005463CE0474640
:10173000C8F86000FFF72EFD064604E0FFF72AFD1B
:10174000801B02282DD820688001F7D4F5E9070115
:101750000843E9681D4A490802EB0141AA6841EAC9
:1017600082110843297C40EA0160297D40EA017129
:101770001148001F016001203866FFF70BFD054688
:1017800005E014E0FFF706FD401B022809D8206899
:101790008001F7D50BE000BFFFF7FCFC401B0228DF
:1017A00002D90320BDE8F88F20688001F4D400201E
:1017B000F8E70120F6E70000083802400038024050
:1017C00000004742800E4742007000400000FFFFCB
:1017D00010B5401EB0F1807F01D3012010BD4FF045
:1017E000E02460610F21601700F08CFA0020A061F6
:1017F00007202061002010BD70B5040004D094F8CB
:101800003900002510B106E0012070BD84F8385081
:10181000204600F023F8242084F839002068C168AD
:1018200021F40051C160204600F0C2F9206801692E
:1018300021F4904101612068416921F02A01416150
:101840002068C16841F40051C160E563202084F83C
:10185000390084F83A00002070BD000010B586B051
:10186000044614216846FEF703FD144920688842A7
:1018700021D113480021026842F010020260006882
:1018800000F0100005900E481438026842F0010282
:101890000260006800F0010005904FF4C060009005
:1018A0000220CDE90101032003900720049069463E
:1018B0000448FFF7B1FB06B010BD00000010014066
:1018C0004438024000000240FEE710B5012000F05D
:1018D00093F8BDE810400120FFF78CBB10B5094C10
:1018E000012220212046FFF74FFC0120FFF782FB59
:1018F000002220212046FFF747FCBDE810400120D0
:10190000FFF778BB0004024041B1012908D0022949
:1019100008D0D4210844C0B200F06EB88021F9E7A5
:10192000C021F7E79421F5E710B5002000F044F856
:10193000002210210F48FFF727FC032000F03CF89D
:10194000FFF7CCFFFFF7CAFFFFF7C8FF022000F048
:1019500033F8FFF7C3FF282000F04EF80C2000F00A
:101960004BF8062000F048F8BDE81040012000F0D8
:1019700043B800000004024070B5084C054601223F
:1019800010212046FFF700FC284600F035F82046DD
:10199000BDE8704000221021FFF7F6BB00040240B2
:1019A00010B5044603E000BFFFF7E6FF641C207893
:1019B0000028F9D110BD000070B50E4D044600F0AE
:1019C000010240212846FFF7DFFBC4F340028021DB
:1019D0002846FFF7D9FBC4F38002A9152846FFF774
:1019E000D3FBC4F3C00269152846BDE87040FFF779
:1019F000CBBB00000004024010B504460009FFF70D
:101A0000DBFFFFF76BFF2046FFF7D6FFBDE8104076
:101A1000FFF764BF7FB5002413480094019402943B
:101A200010490394C0E9001401250561846004761F
:101A300080F820400D49C0E90A140226C661C4603E
:101A400080F830404561FFF76EF8CDE90045694602
:101A500005480294FEF7BEFF694603480196FEF76B
:101A6000B9FF7FBD00200140200200200100000FCF
:101A70002DE9F04387B014216846FEF7F9FB2348AF
:101A80000024016841F001010160016801F00101D9
:101A90000591016841F0020101600068DFF8708083
:101AA00000F002004FF2F8360590224631464046DB
:101AB000FFF76AFBDFF85C904FF4184700223946C5
:101AC0004846FFF761FB3C2001258DE8310069465F
:101AD0004846FFF7A1FA0720CDE9000469464046D1
:101AE0000294FFF799FA0096CDE901546946404601
:101AF0000394FFF791FA0097CDE9015469464846EF
:101B00000394FFF789FA07B0BDE8F083303802404C
:101B10000004024000000240FEE770477047704733
:101B2000FFF73EBB10B594B034216846FEF7A0FB2A
:101B300014210DA8FEF79CFB14480024016841F015
:101B400080510160006800F08050129010480168D8
:101B500041F4404101600068069400F44040129056
:101B60000220009001200390102004906846FFF7A7
:101B70009DFC0F20CDE90D040F94109400210DA8B9
:101B80001194FFF7A7FB14B010BD000040380240CD
:101B9000007000400548016841F47001016003498C
:101BA0004FF00060803908607047000088ED00E069
:101BB0002DE9F041044600680169E26821F44051D2
:101BC000114301612169A068E26908436169114319
:101BD00008432168CA6849F20C639A430243CA6009
:101BE00020684169A26921F4407111434161E069B3
:101BF000192764253226B0F5004F354A354920684B
:101C00004FF0000806D0884201D0904236D1FFF74D
:101C10000BFC35E0884201D0904202D1FFF704FC72
:101C200001E0FFF7F1FB61684A18A0FB070148EBF0
:101C30000803FEF7E5FA0146B0FBF5F00201B1FB3F
:101C4000F5F06FF01803584301EB800006EBC0007D
:101C5000B0FBF5F000F0F80002EB4002B1FBF5F04C
:101C6000584301EB800006EBC000B0FBF5F000F03C
:101C70000700216810448860BDE8F081FFF7C4FBCD
:101C800061688B0F8A00A0FB0701FEF7B9FA0146D5
:101C9000B0FBF5F06FF01802504301EB800006EB4B
:101CA0000010B0FBF5F000F0F002B1FBF5F002EB34
:101CB0000012B1FBF5F06FF01803584301EB800000
:101CC00006EB0010B0FBF5F000F00F00D1E70000CC
:101CD0000014014000100140FEE700000FB4084B63
:101CE00010B504A902AA039800F0EEF8044602A970
:101CF000002000F080FC204610BC5DF814FB0000C2
:101D0000F72500080907090E002804DB00F1E02090
:101D100080F80014704700F00F0000F1E02080F818
:101D2000141D704702E008C8121F08C1002AFAD12A
:101D300070477047002001E001C1121F002AFBD14B
:101D4000704700002DE9FF5F82B00021DDE904301B
:101D5000020DDDF840B0034318D044F61050A2F253
:101D6000FF3242431514119801281FD0A5EB0B0038
:101D7000401C5FEA000A4FF000064E4FDFF8389132
:101D8000B046504615D5CAF1000413E0119801245D
:101D90004AA3012801D16FEA0B010298119AC0E908
:101DA0000031C0E9024206B0BDE8F09FCBF100006F
:101DB000DFE704460021404A491842EB0450CDE9D0
:101DC000001012E0E00707D032463B464046494645
:101DD000FEF759FA8046894632463B461046194678
:101DE000FEF751FA06460F466410002CEAD1DDE9F1
:101DF0000401DDE90023BAF1000F06DAFEF743FA29
:101E000042464B46FEF73FFA05E0FEF7E7FB424647
:101E10004B46FEF7E3FB04460E460022284BFEF736
:101E200065FC03D84FF0FF30014607E00022254B48
:101E300020463146FEF72BFBFEF73FFC102409E05D
:101E4000002C0ADB0A220023FEF7DAF9039B30326A
:101E50001A55641E50EA0102F2D1641C039AC4F1BF
:101E600011031444119A012A03D0012208430DD111
:101E70000AE0084304D000204FF0110B119072E7E4
:101E8000A3EB0B056D1E0DE05B4504DD4FF000027A
:101E900005F1010504E003DA4FF00002A5F10105A8
:101EA000002AECD002981199C0E90231C0E900453E
:101EB00079E70000000014400000F03F300000000F
:101EC0000000F0430000E03F2DE9FF4F95B09B4636
:101ED0008946064600250FE2252877D100242746AB
:101EE000F84A0121059400E0044316F8013F203B25
:101EF00001FA03F01042F7D130782A2811D06FF0A0
:101F00002F033078A0F13002092A16D8059A44F040
:101F1000020402EB820203EB42021044761C05909D
:101F2000EFE759F8042B0592002A03DA504244F4F3
:101F30000054059044F00204761C30782E2816D107
:101F400016F8010F44F004042A280DD06FF02F0278
:101F50003078A0F13003092B09D807EB870302EB97
:101F60004303C718761CF3E759F8047B761C3078D6
:101F70006C280FD006DC4C2817D068280DD06A28B2
:101F800014D104E0742810D07A280FD10DE044F465
:101F900000140AE044F4801401E044F44014727820
:101FA000824202D104F58014761C761C30786628B3
:101FB0000BD013DC582877D009DC002875D04528D1
:101FC000F6D04628F4D047281AD19DE118E06328BE
:101FD00035D0642879D0652812D195E1702873D066
:101FE00008DC6728F1D069286FD06E280DD06F28E3
:101FF00006D1B5E073282CD0752875D0782874D018
:102000005A46179990476D1C75E1C4F30250022897
:1020100009D003280DD0D9F8001004280DD00D6088
:1020200009F1040967E1D9F80010EA17C1E9005283
:10203000F6E7D9F800100D80F2E70D70F0E719F817
:10204000041B8DF8001000208DF80100EA460120E5
:1020500003E059F804AB4FF0FF3061074FF0000187
:1020600002D40DE008F101018846B9420FDA80453B
:10207000F8DB1AF808100029F4D108E008F1010192
:1020800088468142FADB1AF808100029F6D1059833
:102090005B46A0EB080721463846179A00F094FAF1
:1020A000284400EB080507E04DE029E10DE01AF8AF
:1020B000010B5A4617999047B8F10108F7D25B46D1
:1020C00021463846179A13E142E00A220092C4F3EF
:1020D00002524FF0000A022A08D059F804CB032A12
:1020E0004FEAEC710AD00DE029E02AE009F107017E
:1020F00021F00702F2E802C1914609E00FFA8CFCD8
:102100004FEAEC71042A03D14FFA8CFC4FEAEC71D0
:10211000002907DA0A460021DCF1000C61EB02011C
:102120002D2202E0220504D52B228DF80420012265
:1021300003E0E20701D02022F7E7904659E00A21A8
:1021400002E010220DE010214FF0000A00910BE098
:1021500010224FF0000A44F004040827009203E024
:1021600008224FF0000A0092C4F30252022A05D05E
:1021700059F804CB0021032A08D009E009F107012E
:1021800021F00702F2E802C1914605E01FFA8CFC3B
:10219000042A01D10CF0FF0C4FF00008220728D5CB
:1021A000702806D0009B83F0100353EA0A0305D081
:1021B0000EE040228DF80420012208E05CEA0102D2
:1021C00006D030228DF804208DF8050002229046BA
:1021D000009B83F0080353EA0A030AD15CEA010278
:1021E00001D1620705D530228DF804204FF0010897
:1021F0007F1E582804D034A003900EA802900DE052
:1022000036A0F9E753466046009AFDF7F9FF844689
:102210000398825C0298401E029002705CEA010002
:10222000F0D1029806A9081A00F1200A600702D529
:1022300024F4803400E00127574502DDA7EB0A00B3
:1022400000E0002000EB0A01009005984144401A8C
:102250000590E00306D45B462146179A059800F0E6
:10226000B3F90544002706E001A85A46C05D179956
:1022700090476D1C7F1C4745F6DBE0030CD55B46A1
:102280002146179A059800F09FF9054404E0302094
:102290005A46179990476D1C0099481E00900029D6
:1022A000F5DC08E0029802995A460078491C029130
:1022B000179990476D1CBAF10001AAF1010AF1DCEF
:1022C00065E10000092801003031323334353637FA
:1022D0003839616263646566000000003031323372
:1022E0003435363738394142434445460000000012
:1022F00000F058F90544761C307800287FF4ECADE6
:1023000019B02846BDE8F08F620700D4062709F10E
:10231000070222F0070CFCE80223E14603F0004824
:102320005FEA080C02D00FF2702C0DE05FEA045C4B
:1023300002D50FF2682C07E05FEAC47C02D00FF2EE
:10234000602C01E0AFF2700C4FF0FF3823F0004337
:10235000CDF850C065280CD006DC452809D04628A9
:102360001DD047283DD13DE0662818D067287ED192
:1023700038E00021112F01DB112000E0781CCDE9AD
:10238000000106A90EA8FFF7DDFCDDE90F010E9A9A
:1023900003910021009207F1010A04914DE04FF0F2
:1023A00000400097CDE9011006A90EA8FFF7CAFC6E
:1023B000DDE90F0203920E9B11990022DDF80CA0BB
:1023C0000093049211B9791C00EB010AB7EB0A00E3
:1023D00004D4C0F1FF3007F1010A0490AAEB070012
:1023E000019044E0012F00DA01270021112F01DDC7
:1023F000112000E03846CDE9000106A90EA8FFF73C
:10240000A1FCDDE90F010E9A0391002104910092D5
:10241000BA4621070CD40399514500DA8A46BAF12D
:10242000010F05DD009AAAF10101515C302908D0A5
:10243000B84202DA10F1040F06DA0121CDE90110E9
:1024400015E0AAF10101E9E7002805DC049901443F
:102450000491AAEB000102E0411C514500DD8A46CF
:102460000499401A401C01904FF000400290200750
:1024700004D40198504501DBCDF8048000208DF88C
:102480004F0002980DF14F07B0F1004F25D02B20DF
:102490000E9002984FF0020800280CDA4042029099
:1024A0002D200E9007E00A210298FDF75EFF3031E3
:1024B000029007F8011DB8F10001A8F10108F2DC53
:1024C00002980028EFD1791E0E980870307800F03D
:1024D000200040F0450007F8020D12A8C01B00F1D3
:1024E00007081498007800B1012000EB0A01019858
:1024F00001EBE07105984144401A401E0590E0034D
:1025000006D45B462146179A059800F05DF805440D
:102510001498007818B15A46179990476D1CE0033B
:1025200024D55B462146179A059800F04DF80544DE
:102530001CE00498002807DBDDE90301884203DD85
:102540000098405C179901E0179930205A4690474F
:10255000049805F10105401C04900198401E01906B
:1025600004D12E205A46179990476D1CBAF10001EC
:10257000AAF1010ADDDC05E017F8010B5A461799AC
:1025800090476D1CB8F10001A8F10108F4DC5B462E
:102590002146179A0598ABE62D0000002B0000009D
:1025A000200000002DE9F041044600251E46174694
:1025B000880404D405E039462020B0476D1C641E11
:1025C000F9D52846BDE8F0812DE9F0410446002503
:1025D0001E469046C80301D5302700E02027880416
:1025E00004D505E041463846B0476D1C641EF9D558
:1025F0002846BDE8F0810A68531C0B6010707047D4
:1026000010B5FFF762F900210846FFF77DF910A029
:10261000FFF7C6F901210020FFF776F90FA0FFF7B9
:10262000BFF901210620FFF76FF9002000F062F8E2
:1026300001210820FFF768F90AA0FFF7B1F901218D
:102640000E20FFF761F9BDE8104008A0FFF7A8B918
:10265000434F4E47205459204142430054656D700A
:102660003A000000566F6C743A00000067657456BB
:102670006F6C74282900000008B5FEF799FDFFF77C
:1026800051FAFFF7F5F917480024016841F4800179
:1026900001600068224600F4800000902146382046
:1026A000FEF7E6FD3820FEF7D5FDFFF7B3F90F483A
:1026B0000D4901604FF4E131C0E901140C21C460FF
:1026C000C0E904418461C461FFF796F8074802221B
:1026D00007494838FEF79CFAFFF726F9FFF790FF05
:1026E000FEE7000030380240001001406802002080
:1026F0001C00002010B5024604A10548FFF7EEFAC1
:10270000BDE810400248FFF74BB900002564000007
:10271000240100200006101600061016000000001C
:102720000000000001020304060708090000000081
:1027300001020304542700080000002024010000C7
:10274000241D00087828000824010020E40500006A
:10275000341D000801011E140000000000000000EC
:102760000000000000000000000000000000000069
:1027700000000000010043616920646174000000F2
:1027800000000000000002014E6869657420646F5B
:10279000000000000000000003014469656E206134
:1027A00070000000000000000000040054686F6E1C
:1027B000672074696E0000000000000005044D6F82
:1027C00064756C6520310000000000000000060404
:1027D0004D6F64756C652032000000000000000041
:1027E00007044D6F64756C65203300000000000025
:1027F000000008044D6F64756C6520340000000013
:1028000000000000416371757931000000004163F0
:1028100071757932000000004163717579330000F1
:1028200000004163717579340000000041637175E7
:1028300079350000000041637175793600000000B1
:102840004163717579370000000041637175793813
:102850000000000041637175793900000000416398
:102860007175793130000000010000001000000097
:08287000000000000024F40048
:04000005080001C925
:00000001FF
